:100000000C9434000C943E000C943E000C943E0082
:100010000C943E000C943E000C943E000C943E0068
:100020000C943E000C943E000C943E000C943E0058
:100030000C943E000C943E000C943E000C943E0048
:100040000C943E000C943E000C943E000C943E0038
:100050000C943E000C943E000C943E000C943E0028
:100060000C943E000C943E0011241FBECFEFD8E04C
:10007000DEBFCDBF0E9471000C9490000C94000074
:100080008093C4009093C500E1ECF0E0808188612A
:10009000808308958091C000FDCFECE7F0E080817F
:1000A0008064808380818F7D8083EAE7F0E08081B7
:1000B00081608083808180688083089590917C0036
:1000C000892B80937C0080917A00806480937A00F1
:1000D00080917A0086FDFCCF809178009091790024
:1000E00008958AB18C6F8AB984B18F6384B92498DA
:1000F00087E690E00E9440000E944D0080E00E9450
:100100005E002BB1382F330F330F232B2BB925B1C2
:1001100036E0969587953A95E1F7822B85B9EECF33
:04012000F894FFCF81
:00000001FF
